{
  "_format": "hh-sol-artifact-1",
  "contractName": "WrappedBTCExample",
  "sourceName": "contracts/WrappedBTCExample.sol",
  "abi": [
    {
      "inputs": [],
      "stateMutability": "nonpayable",
      "type": "constructor"
    },
    {
      "anonymous": false,
      "inputs": [
        {
          "indexed": true,
          "internalType": "address",
          "name": "owner",
          "type": "address"
        },
        {
          "indexed": true,
          "internalType": "address",
          "name": "spender",
          "type": "address"
        },
        {
          "indexed": false,
          "internalType": "uint256",
          "name": "value",
          "type": "uint256"
        }
      ],
      "name": "Approval",
      "type": "event"
    },
    {
      "anonymous": false,
      "inputs": [
        {
          "indexed": true,
          "internalType": "address",
          "name": "previousOwner",
          "type": "address"
        },
        {
          "indexed": true,
          "internalType": "address",
          "name": "newOwner",
          "type": "address"
        }
      ],
      "name": "OwnershipTransferred",
      "type": "event"
    },
    {
      "anonymous": false,
      "inputs": [
        {
          "indexed": false,
          "internalType": "address",
          "name": "account",
          "type": "address"
        }
      ],
      "name": "Paused",
      "type": "event"
    },
    {
      "anonymous": false,
      "inputs": [
        {
          "indexed": true,
          "internalType": "address",
          "name": "from",
          "type": "address"
        },
        {
          "indexed": true,
          "internalType": "address",
          "name": "to",
          "type": "address"
        },
        {
          "indexed": false,
          "internalType": "uint256",
          "name": "value",
          "type": "uint256"
        }
      ],
      "name": "Transfer",
      "type": "event"
    },
    {
      "anonymous": false,
      "inputs": [
        {
          "indexed": false,
          "internalType": "address",
          "name": "account",
          "type": "address"
        }
      ],
      "name": "Unpaused",
      "type": "event"
    },
    {
      "inputs": [
        {
          "internalType": "address",
          "name": "owner",
          "type": "address"
        },
        {
          "internalType": "address",
          "name": "spender",
          "type": "address"
        }
      ],
      "name": "allowance",
      "outputs": [
        {
          "internalType": "uint256",
          "name": "",
          "type": "uint256"
        }
      ],
      "stateMutability": "view",
      "type": "function"
    },
    {
      "inputs": [
        {
          "internalType": "address",
          "name": "spender",
          "type": "address"
        },
        {
          "internalType": "uint256",
          "name": "amount",
          "type": "uint256"
        }
      ],
      "name": "approve",
      "outputs": [
        {
          "internalType": "bool",
          "name": "",
          "type": "bool"
        }
      ],
      "stateMutability": "nonpayable",
      "type": "function"
    },
    {
      "inputs": [
        {
          "internalType": "address",
          "name": "account",
          "type": "address"
        }
      ],
      "name": "balanceOf",
      "outputs": [
        {
          "internalType": "uint256",
          "name": "",
          "type": "uint256"
        }
      ],
      "stateMutability": "view",
      "type": "function"
    },
    {
      "inputs": [
        {
          "internalType": "uint256",
          "name": "amount",
          "type": "uint256"
        }
      ],
      "name": "burn",
      "outputs": [],
      "stateMutability": "nonpayable",
      "type": "function"
    },
    {
      "inputs": [],
      "name": "decimals",
      "outputs": [
        {
          "internalType": "uint8",
          "name": "",
          "type": "uint8"
        }
      ],
      "stateMutability": "view",
      "type": "function"
    },
    {
      "inputs": [
        {
          "internalType": "address",
          "name": "spender",
          "type": "address"
        },
        {
          "internalType": "uint256",
          "name": "subtractedValue",
          "type": "uint256"
        }
      ],
      "name": "decreaseAllowance",
      "outputs": [
        {
          "internalType": "bool",
          "name": "",
          "type": "bool"
        }
      ],
      "stateMutability": "nonpayable",
      "type": "function"
    },
    {
      "inputs": [
        {
          "internalType": "address",
          "name": "spender",
          "type": "address"
        },
        {
          "internalType": "uint256",
          "name": "addedValue",
          "type": "uint256"
        }
      ],
      "name": "increaseAllowance",
      "outputs": [
        {
          "internalType": "bool",
          "name": "",
          "type": "bool"
        }
      ],
      "stateMutability": "nonpayable",
      "type": "function"
    },
    {
      "inputs": [
        {
          "internalType": "address",
          "name": "to",
          "type": "address"
        },
        {
          "internalType": "uint256",
          "name": "amount",
          "type": "uint256"
        }
      ],
      "name": "mint",
      "outputs": [],
      "stateMutability": "nonpayable",
      "type": "function"
    },
    {
      "inputs": [],
      "name": "name",
      "outputs": [
        {
          "internalType": "string",
          "name": "",
          "type": "string"
        }
      ],
      "stateMutability": "view",
      "type": "function"
    },
    {
      "inputs": [],
      "name": "owner",
      "outputs": [
        {
          "internalType": "address",
          "name": "",
          "type": "address"
        }
      ],
      "stateMutability": "view",
      "type": "function"
    },
    {
      "inputs": [],
      "name": "pause",
      "outputs": [],
      "stateMutability": "nonpayable",
      "type": "function"
    },
    {
      "inputs": [],
      "name": "paused",
      "outputs": [
        {
          "internalType": "bool",
          "name": "",
          "type": "bool"
        }
      ],
      "stateMutability": "view",
      "type": "function"
    },
    {
      "inputs": [
        {
          "internalType": "address",
          "name": "_token",
          "type": "address"
        }
      ],
      "name": "reclaimToken",
      "outputs": [],
      "stateMutability": "nonpayable",
      "type": "function"
    },
    {
      "inputs": [],
      "name": "renounceOwnership",
      "outputs": [],
      "stateMutability": "view",
      "type": "function"
    },
    {
      "inputs": [],
      "name": "symbol",
      "outputs": [
        {
          "internalType": "string",
          "name": "",
          "type": "string"
        }
      ],
      "stateMutability": "view",
      "type": "function"
    },
    {
      "inputs": [],
      "name": "totalSupply",
      "outputs": [
        {
          "internalType": "uint256",
          "name": "",
          "type": "uint256"
        }
      ],
      "stateMutability": "view",
      "type": "function"
    },
    {
      "inputs": [
        {
          "internalType": "address",
          "name": "to",
          "type": "address"
        },
        {
          "internalType": "uint256",
          "name": "amount",
          "type": "uint256"
        }
      ],
      "name": "transfer",
      "outputs": [
        {
          "internalType": "bool",
          "name": "",
          "type": "bool"
        }
      ],
      "stateMutability": "nonpayable",
      "type": "function"
    },
    {
      "inputs": [
        {
          "internalType": "address",
          "name": "from",
          "type": "address"
        },
        {
          "internalType": "address",
          "name": "to",
          "type": "address"
        },
        {
          "internalType": "uint256",
          "name": "amount",
          "type": "uint256"
        }
      ],
      "name": "transferFrom",
      "outputs": [
        {
          "internalType": "bool",
          "name": "",
          "type": "bool"
        }
      ],
      "stateMutability": "nonpayable",
      "type": "function"
    },
    {
      "inputs": [
        {
          "internalType": "address",
          "name": "newOwner",
          "type": "address"
        }
      ],
      "name": "transferOwnership",
      "outputs": [],
      "stateMutability": "nonpayable",
      "type": "function"
    },
    {
      "inputs": [],
      "name": "unpause",
      "outputs": [],
      "stateMutability": "nonpayable",
      "type": "function"
    }
  ],
  "bytecode": "0x60806040523480156200001157600080fd5b506040518060400160405280601181526020017f577261707065644254434578616d706c650000000000000000000000000000008152506040518060400160405280600481526020017f5742544300000000000000000000000000000000000000000000000000000000815250816003908051906020019062000096929190620001c1565b508060049080519060200190620000af929190620001c1565b5050506000600560006101000a81548160ff021916908315150217905550620000ed620000e1620000f360201b60201c565b620000fb60201b60201c565b620002d6565b600033905090565b6000600560019054906101000a900473ffffffffffffffffffffffffffffffffffffffff16905081600560016101000a81548173ffffffffffffffffffffffffffffffffffffffff021916908373ffffffffffffffffffffffffffffffffffffffff1602179055508173ffffffffffffffffffffffffffffffffffffffff168173ffffffffffffffffffffffffffffffffffffffff167f8be0079c531659141344cd1fd0a4f28419497f9722a3daafe3b4186f6b6457e060405160405180910390a35050565b828054620001cf90620002a0565b90600052602060002090601f016020900481019282620001f357600085556200023f565b82601f106200020e57805160ff19168380011785556200023f565b828001600101855582156200023f579182015b828111156200023e57825182559160200191906001019062000221565b5b5090506200024e919062000252565b5090565b5b808211156200026d57600081600090555060010162000253565b5090565b7f4e487b7100000000000000000000000000000000000000000000000000000000600052602260045260246000fd5b60006002820490506001821680620002b957607f821691505b60208210811415620002d057620002cf62000271565b5b50919050565b6126a780620002e66000396000f3fe608060405234801561001057600080fd5b506004361061012c5760003560e01c80635c975abb116100ad57806395d89b411161007157806395d89b41146102f9578063a457c2d714610317578063a9059cbb14610347578063dd62ed3e14610377578063f2fde38b146103a75761012c565b80635c975abb1461027957806370a0823114610297578063715018a6146102c75780638456cb59146102d15780638da5cb5b146102db5761012c565b8063313ce567116100f4578063313ce567146101e957806339509351146102075780633f4ba83a1461023757806340c10f191461024157806342966c681461025d5761012c565b806306fdde0314610131578063095ea7b31461014f57806317ffc3201461017f57806318160ddd1461019b57806323b872dd146101b9575b600080fd5b6101396103c3565b60405161014691906117f4565b60405180910390f35b610169600480360381019061016491906118af565b610455565b604051610176919061190a565b60405180910390f35b61019960048036038101906101949190611925565b610478565b005b6101a3610543565b6040516101b09190611961565b60405180910390f35b6101d360048036038101906101ce919061197c565b61054d565b6040516101e0919061190a565b60405180910390f35b6101f161057c565b6040516101fe91906119eb565b60405180910390f35b610221600480360381019061021c91906118af565b610585565b60405161022e919061190a565b60405180910390f35b61023f6105bc565b005b61025b600480360381019061025691906118af565b6105ce565b005b61027760048036038101906102729190611a06565b6105e4565b005b610281610600565b60405161028e919061190a565b60405180910390f35b6102b160048036038101906102ac9190611925565b610617565b6040516102be9190611961565b60405180910390f35b6102cf61065f565b005b6102d96106a2565b005b6102e36106b4565b6040516102f09190611a42565b60405180910390f35b6103016106de565b60405161030e91906117f4565b60405180910390f35b610331600480360381019061032c91906118af565b610770565b60405161033e919061190a565b60405180910390f35b610361600480360381019061035c91906118af565b6107e7565b60405161036e919061190a565b60405180910390f35b610391600480360381019061038c9190611a5d565b61080a565b60405161039e9190611961565b60405180910390f35b6103c160048036038101906103bc9190611925565b610891565b005b6060600380546103d290611acc565b80601f01602080910402602001604051908101604052809291908181526020018280546103fe90611acc565b801561044b5780601f106104205761010080835404028352916020019161044b565b820191906000526020600020905b81548152906001019060200180831161042e57829003601f168201915b5050505050905090565b600080610460610915565b905061046d81858561091d565b600191505092915050565b610480610935565b60008173ffffffffffffffffffffffffffffffffffffffff166370a08231306040518263ffffffff1660e01b81526004016104bb9190611a42565b60206040518083038186803b1580156104d357600080fd5b505afa1580156104e7573d6000803e3d6000fd5b505050506040513d601f19601f8201168201806040525081019061050b9190611b13565b905061053f6105186106b4565b828473ffffffffffffffffffffffffffffffffffffffff166109b39092919063ffffffff16565b5050565b6000600254905090565b600080610558610915565b9050610565858285610a39565b610570858585610ac5565b60019150509392505050565b60006008905090565b600080610590610915565b90506105b18185856105a2858961080a565b6105ac9190611b6f565b61091d565b600191505092915050565b6105c4610935565b6105cc610d3d565b565b6105d6610935565b6105e08282610da0565b5050565b6105ec610935565b6105fd6105f7610915565b82610ef7565b50565b6000600560009054906101000a900460ff16905090565b60008060008373ffffffffffffffffffffffffffffffffffffffff1673ffffffffffffffffffffffffffffffffffffffff168152602001908152602001600020549050919050565b610667610935565b6040517f08c379a000000000000000000000000000000000000000000000000000000000815260040161069990611c11565b60405180910390fd5b6106aa610935565b6106b26110c5565b565b6000600560019054906101000a900473ffffffffffffffffffffffffffffffffffffffff16905090565b6060600480546106ed90611acc565b80601f016020809104026020016040519081016040528092919081815260200182805461071990611acc565b80156107665780601f1061073b57610100808354040283529160200191610766565b820191906000526020600020905b81548152906001019060200180831161074957829003601f168201915b5050505050905090565b60008061077b610915565b90506000610789828661080a565b9050838110156107ce576040517f08c379a00000000000000000000000000000000000000000000000000000000081526004016107c590611ca3565b60405180910390fd5b6107db828686840361091d565b60019250505092915050565b6000806107f2610915565b90506107ff818585610ac5565b600191505092915050565b6000600160008473ffffffffffffffffffffffffffffffffffffffff1673ffffffffffffffffffffffffffffffffffffffff16815260200190815260200160002060008373ffffffffffffffffffffffffffffffffffffffff1673ffffffffffffffffffffffffffffffffffffffff16815260200190815260200160002054905092915050565b610899610935565b600073ffffffffffffffffffffffffffffffffffffffff168173ffffffffffffffffffffffffffffffffffffffff161415610909576040517f08c379a000000000000000000000000000000000000000000000000000000000815260040161090090611d35565b60405180910390fd5b61091281611128565b50565b600033905090565b6109256111ee565b610930838383611238565b505050565b61093d610915565b73ffffffffffffffffffffffffffffffffffffffff1661095b6106b4565b73ffffffffffffffffffffffffffffffffffffffff16146109b1576040517f08c379a00000000000000000000000000000000000000000000000000000000081526004016109a890611da1565b60405180910390fd5b565b610a348363a9059cbb60e01b84846040516024016109d2929190611dc1565b604051602081830303815290604052907bffffffffffffffffffffffffffffffffffffffffffffffffffffffff19166020820180517bffffffffffffffffffffffffffffffffffffffffffffffffffffffff8381831617835250505050611403565b505050565b6000610a45848461080a565b90507fffffffffffffffffffffffffffffffffffffffffffffffffffffffffffffffff8114610abf5781811015610ab1576040517f08c379a0000000000000000000000000000000000000000000000000000000008152600401610aa890611e36565b60405180910390fd5b610abe848484840361091d565b5b50505050565b600073ffffffffffffffffffffffffffffffffffffffff168373ffffffffffffffffffffffffffffffffffffffff161415610b35576040517f08c379a0000000000000000000000000000000000000000000000000000000008152600401610b2c90611ec8565b60405180910390fd5b600073ffffffffffffffffffffffffffffffffffffffff168273ffffffffffffffffffffffffffffffffffffffff161415610ba5576040517f08c379a0000000000000000000000000000000000000000000000000000000008152600401610b9c90611f5a565b60405180910390fd5b610bb08383836114ca565b60008060008573ffffffffffffffffffffffffffffffffffffffff1673ffffffffffffffffffffffffffffffffffffffff16815260200190815260200160002054905081811015610c36576040517f08c379a0000000000000000000000000000000000000000000000000000000008152600401610c2d90611fec565b60405180910390fd5b8181036000808673ffffffffffffffffffffffffffffffffffffffff1673ffffffffffffffffffffffffffffffffffffffff16815260200190815260200160002081905550816000808573ffffffffffffffffffffffffffffffffffffffff1673ffffffffffffffffffffffffffffffffffffffff168152602001908152602001600020600082825401925050819055508273ffffffffffffffffffffffffffffffffffffffff168473ffffffffffffffffffffffffffffffffffffffff167fddf252ad1be2c89b69c2b068fc378daa952ba7f163c4a11628f55a4df523b3ef84604051610d249190611961565b60405180910390a3610d378484846114e2565b50505050565b610d456114e7565b6000600560006101000a81548160ff0219169083151502179055507f5db9ee0a495bf2e6ff9c91a7834c1ba4fdd244a5e8aa4e537bd38aeae4b073aa610d89610915565b604051610d969190611a42565b60405180910390a1565b600073ffffffffffffffffffffffffffffffffffffffff168273ffffffffffffffffffffffffffffffffffffffff161415610e10576040517f08c379a0000000000000000000000000000000000000000000000000000000008152600401610e0790612058565b60405180910390fd5b610e1c600083836114ca565b8060026000828254610e2e9190611b6f565b92505081905550806000808473ffffffffffffffffffffffffffffffffffffffff1673ffffffffffffffffffffffffffffffffffffffff168152602001908152602001600020600082825401925050819055508173ffffffffffffffffffffffffffffffffffffffff16600073ffffffffffffffffffffffffffffffffffffffff167fddf252ad1be2c89b69c2b068fc378daa952ba7f163c4a11628f55a4df523b3ef83604051610edf9190611961565b60405180910390a3610ef3600083836114e2565b5050565b600073ffffffffffffffffffffffffffffffffffffffff168273ffffffffffffffffffffffffffffffffffffffff161415610f67576040517f08c379a0000000000000000000000000000000000000000000000000000000008152600401610f5e906120ea565b60405180910390fd5b610f73826000836114ca565b60008060008473ffffffffffffffffffffffffffffffffffffffff1673ffffffffffffffffffffffffffffffffffffffff16815260200190815260200160002054905081811015610ff9576040517f08c379a0000000000000000000000000000000000000000000000000000000008152600401610ff09061217c565b60405180910390fd5b8181036000808573ffffffffffffffffffffffffffffffffffffffff1673ffffffffffffffffffffffffffffffffffffffff1681526020019081526020016000208190555081600260008282540392505081905550600073ffffffffffffffffffffffffffffffffffffffff168373ffffffffffffffffffffffffffffffffffffffff167fddf252ad1be2c89b69c2b068fc378daa952ba7f163c4a11628f55a4df523b3ef846040516110ac9190611961565b60405180910390a36110c0836000846114e2565b505050565b6110cd6111ee565b6001600560006101000a81548160ff0219169083151502179055507f62e78cea01bee320cd4e420270b5ea74000d11b0c9f74754ebdbfc544b05a258611111610915565b60405161111e9190611a42565b60405180910390a1565b6000600560019054906101000a900473ffffffffffffffffffffffffffffffffffffffff16905081600560016101000a81548173ffffffffffffffffffffffffffffffffffffffff021916908373ffffffffffffffffffffffffffffffffffffffff1602179055508173ffffffffffffffffffffffffffffffffffffffff168173ffffffffffffffffffffffffffffffffffffffff167f8be0079c531659141344cd1fd0a4f28419497f9722a3daafe3b4186f6b6457e060405160405180910390a35050565b6111f6610600565b15611236576040517f08c379a000000000000000000000000000000000000000000000000000000000815260040161122d906121e8565b60405180910390fd5b565b600073ffffffffffffffffffffffffffffffffffffffff168373ffffffffffffffffffffffffffffffffffffffff1614156112a8576040517f08c379a000000000000000000000000000000000000000000000000000000000815260040161129f9061227a565b60405180910390fd5b600073ffffffffffffffffffffffffffffffffffffffff168273ffffffffffffffffffffffffffffffffffffffff161415611318576040517f08c379a000000000000000000000000000000000000000000000000000000000815260040161130f9061230c565b60405180910390fd5b80600160008573ffffffffffffffffffffffffffffffffffffffff1673ffffffffffffffffffffffffffffffffffffffff16815260200190815260200160002060008473ffffffffffffffffffffffffffffffffffffffff1673ffffffffffffffffffffffffffffffffffffffff168152602001908152602001600020819055508173ffffffffffffffffffffffffffffffffffffffff168373ffffffffffffffffffffffffffffffffffffffff167f8c5be1e5ebec7d5bd14f71427d1e84f3dd0314c0f7b2291e5b200ac8c7c3b925836040516113f69190611961565b60405180910390a3505050565b6000611465826040518060400160405280602081526020017f5361666545524332303a206c6f772d6c6576656c2063616c6c206661696c65648152508573ffffffffffffffffffffffffffffffffffffffff166115309092919063ffffffff16565b90506000815111156114c557808060200190518101906114859190612358565b6114c4576040517f08c379a00000000000000000000000000000000000000000000000000000000081526004016114bb906123f7565b60405180910390fd5b5b505050565b6114d26111ee565b6114dd838383611548565b505050565b505050565b6114ef610600565b61152e576040517f08c379a000000000000000000000000000000000000000000000000000000000815260040161152590612463565b60405180910390fd5b565b606061153f84846000856115a0565b90509392505050565b61155383838361166d565b61155b610600565b1561159b576040517f08c379a0000000000000000000000000000000000000000000000000000000008152600401611592906124f5565b60405180910390fd5b505050565b6060824710156115e5576040517f08c379a00000000000000000000000000000000000000000000000000000000081526004016115dc90612587565b60405180910390fd5b6000808673ffffffffffffffffffffffffffffffffffffffff16858760405161160e91906125ee565b60006040518083038185875af1925050503d806000811461164b576040519150601f19603f3d011682016040523d82523d6000602084013e611650565b606091505b509150915061166187838387611672565b92505050949350505050565b505050565b606083156116d5576000835114156116cd5761168d856116e8565b6116cc576040517f08c379a00000000000000000000000000000000000000000000000000000000081526004016116c390612651565b60405180910390fd5b5b8290506116e0565b6116df838361170b565b5b949350505050565b6000808273ffffffffffffffffffffffffffffffffffffffff163b119050919050565b60008251111561171e5781518083602001fd5b806040517f08c379a000000000000000000000000000000000000000000000000000000000815260040161175291906117f4565b60405180910390fd5b600081519050919050565b600082825260208201905092915050565b60005b8381101561179557808201518184015260208101905061177a565b838111156117a4576000848401525b50505050565b6000601f19601f8301169050919050565b60006117c68261175b565b6117d08185611766565b93506117e0818560208601611777565b6117e9816117aa565b840191505092915050565b6000602082019050818103600083015261180e81846117bb565b905092915050565b600080fd5b600073ffffffffffffffffffffffffffffffffffffffff82169050919050565b60006118468261181b565b9050919050565b6118568161183b565b811461186157600080fd5b50565b6000813590506118738161184d565b92915050565b6000819050919050565b61188c81611879565b811461189757600080fd5b50565b6000813590506118a981611883565b92915050565b600080604083850312156118c6576118c5611816565b5b60006118d485828601611864565b92505060206118e58582860161189a565b9150509250929050565b60008115159050919050565b611904816118ef565b82525050565b600060208201905061191f60008301846118fb565b92915050565b60006020828403121561193b5761193a611816565b5b600061194984828501611864565b91505092915050565b61195b81611879565b82525050565b60006020820190506119766000830184611952565b92915050565b60008060006060848603121561199557611994611816565b5b60006119a386828701611864565b93505060206119b486828701611864565b92505060406119c58682870161189a565b9150509250925092565b600060ff82169050919050565b6119e5816119cf565b82525050565b6000602082019050611a0060008301846119dc565b92915050565b600060208284031215611a1c57611a1b611816565b5b6000611a2a8482850161189a565b91505092915050565b611a3c8161183b565b82525050565b6000602082019050611a576000830184611a33565b92915050565b60008060408385031215611a7457611a73611816565b5b6000611a8285828601611864565b9250506020611a9385828601611864565b9150509250929050565b7f4e487b7100000000000000000000000000000000000000000000000000000000600052602260045260246000fd5b60006002820490506001821680611ae457607f821691505b60208210811415611af857611af7611a9d565b5b50919050565b600081519050611b0d81611883565b92915050565b600060208284031215611b2957611b28611816565b5b6000611b3784828501611afe565b91505092915050565b7f4e487b7100000000000000000000000000000000000000000000000000000000600052601160045260246000fd5b6000611b7a82611879565b9150611b8583611879565b9250827fffffffffffffffffffffffffffffffffffffffffffffffffffffffffffffffff03821115611bba57611bb9611b40565b5b828201905092915050565b7f72656e6f756e63696e67206f776e65727368697020697320626c6f636b656400600082015250565b6000611bfb601f83611766565b9150611c0682611bc5565b602082019050919050565b60006020820190508181036000830152611c2a81611bee565b9050919050565b7f45524332303a2064656372656173656420616c6c6f77616e63652062656c6f7760008201527f207a65726f000000000000000000000000000000000000000000000000000000602082015250565b6000611c8d602583611766565b9150611c9882611c31565b604082019050919050565b60006020820190508181036000830152611cbc81611c80565b9050919050565b7f4f776e61626c653a206e6577206f776e657220697320746865207a65726f206160008201527f6464726573730000000000000000000000000000000000000000000000000000602082015250565b6000611d1f602683611766565b9150611d2a82611cc3565b604082019050919050565b60006020820190508181036000830152611d4e81611d12565b9050919050565b7f4f776e61626c653a2063616c6c6572206973206e6f7420746865206f776e6572600082015250565b6000611d8b602083611766565b9150611d9682611d55565b602082019050919050565b60006020820190508181036000830152611dba81611d7e565b9050919050565b6000604082019050611dd66000830185611a33565b611de36020830184611952565b9392505050565b7f45524332303a20696e73756666696369656e7420616c6c6f77616e6365000000600082015250565b6000611e20601d83611766565b9150611e2b82611dea565b602082019050919050565b60006020820190508181036000830152611e4f81611e13565b9050919050565b7f45524332303a207472616e736665722066726f6d20746865207a65726f20616460008201527f6472657373000000000000000000000000000000000000000000000000000000602082015250565b6000611eb2602583611766565b9150611ebd82611e56565b604082019050919050565b60006020820190508181036000830152611ee181611ea5565b9050919050565b7f45524332303a207472616e7366657220746f20746865207a65726f206164647260008201527f6573730000000000000000000000000000000000000000000000000000000000602082015250565b6000611f44602383611766565b9150611f4f82611ee8565b604082019050919050565b60006020820190508181036000830152611f7381611f37565b9050919050565b7f45524332303a207472616e7366657220616d6f756e742065786365656473206260008201527f616c616e63650000000000000000000000000000000000000000000000000000602082015250565b6000611fd6602683611766565b9150611fe182611f7a565b604082019050919050565b6000602082019050818103600083015261200581611fc9565b9050919050565b7f45524332303a206d696e7420746f20746865207a65726f206164647265737300600082015250565b6000612042601f83611766565b915061204d8261200c565b602082019050919050565b6000602082019050818103600083015261207181612035565b9050919050565b7f45524332303a206275726e2066726f6d20746865207a65726f2061646472657360008201527f7300000000000000000000000000000000000000000000000000000000000000602082015250565b60006120d4602183611766565b91506120df82612078565b604082019050919050565b60006020820190508181036000830152612103816120c7565b9050919050565b7f45524332303a206275726e20616d6f756e7420657863656564732062616c616e60008201527f6365000000000000000000000000000000000000000000000000000000000000602082015250565b6000612166602283611766565b91506121718261210a565b604082019050919050565b6000602082019050818103600083015261219581612159565b9050919050565b7f5061757361626c653a2070617573656400000000000000000000000000000000600082015250565b60006121d2601083611766565b91506121dd8261219c565b602082019050919050565b60006020820190508181036000830152612201816121c5565b9050919050565b7f45524332303a20617070726f76652066726f6d20746865207a65726f2061646460008201527f7265737300000000000000000000000000000000000000000000000000000000602082015250565b6000612264602483611766565b915061226f82612208565b604082019050919050565b6000602082019050818103600083015261229381612257565b9050919050565b7f45524332303a20617070726f766520746f20746865207a65726f20616464726560008201527f7373000000000000000000000000000000000000000000000000000000000000602082015250565b60006122f6602283611766565b91506123018261229a565b604082019050919050565b60006020820190508181036000830152612325816122e9565b9050919050565b612335816118ef565b811461234057600080fd5b50565b6000815190506123528161232c565b92915050565b60006020828403121561236e5761236d611816565b5b600061237c84828501612343565b91505092915050565b7f5361666545524332303a204552433230206f7065726174696f6e20646964206e60008201527f6f74207375636365656400000000000000000000000000000000000000000000602082015250565b60006123e1602a83611766565b91506123ec82612385565b604082019050919050565b60006020820190508181036000830152612410816123d4565b9050919050565b7f5061757361626c653a206e6f7420706175736564000000000000000000000000600082015250565b600061244d601483611766565b915061245882612417565b602082019050919050565b6000602082019050818103600083015261247c81612440565b9050919050565b7f45524332305061757361626c653a20746f6b656e207472616e7366657220776860008201527f696c652070617573656400000000000000000000000000000000000000000000602082015250565b60006124df602a83611766565b91506124ea82612483565b604082019050919050565b6000602082019050818103600083015261250e816124d2565b9050919050565b7f416464726573733a20696e73756666696369656e742062616c616e636520666f60008201527f722063616c6c0000000000000000000000000000000000000000000000000000602082015250565b6000612571602683611766565b915061257c82612515565b604082019050919050565b600060208201905081810360008301526125a081612564565b9050919050565b600081519050919050565b600081905092915050565b60006125c8826125a7565b6125d281856125b2565b93506125e2818560208601611777565b80840191505092915050565b60006125fa82846125bd565b915081905092915050565b7f416464726573733a2063616c6c20746f206e6f6e2d636f6e7472616374000000600082015250565b600061263b601d83611766565b915061264682612605565b602082019050919050565b6000602082019050818103600083015261266a8161262e565b905091905056fea2646970667358221220c7a8285815663a2a69ed5b96ece34253dc399728900d64d82399ca397ead001164736f6c63430008090033",
  "linkReferences": {},
  "deployedLinkReferences": {}
}