{
  "_format": "hh-sol-artifact-1",
  "contractName": "BancorNetworkTokenExample",
  "sourceName": "contracts/BancorNetworkTokenExample.sol",
  "abi": [
    {
      "inputs": [],
      "stateMutability": "nonpayable",
      "type": "constructor"
    },
    {
      "anonymous": false,
      "inputs": [
        {
          "indexed": true,
          "internalType": "address",
          "name": "owner",
          "type": "address"
        },
        {
          "indexed": true,
          "internalType": "address",
          "name": "spender",
          "type": "address"
        },
        {
          "indexed": false,
          "internalType": "uint256",
          "name": "value",
          "type": "uint256"
        }
      ],
      "name": "Approval",
      "type": "event"
    },
    {
      "anonymous": false,
      "inputs": [
        {
          "indexed": false,
          "internalType": "address",
          "name": "account",
          "type": "address"
        }
      ],
      "name": "Paused",
      "type": "event"
    },
    {
      "anonymous": false,
      "inputs": [
        {
          "indexed": true,
          "internalType": "bytes32",
          "name": "role",
          "type": "bytes32"
        },
        {
          "indexed": true,
          "internalType": "bytes32",
          "name": "previousAdminRole",
          "type": "bytes32"
        },
        {
          "indexed": true,
          "internalType": "bytes32",
          "name": "newAdminRole",
          "type": "bytes32"
        }
      ],
      "name": "RoleAdminChanged",
      "type": "event"
    },
    {
      "anonymous": false,
      "inputs": [
        {
          "indexed": true,
          "internalType": "bytes32",
          "name": "role",
          "type": "bytes32"
        },
        {
          "indexed": true,
          "internalType": "address",
          "name": "account",
          "type": "address"
        },
        {
          "indexed": true,
          "internalType": "address",
          "name": "sender",
          "type": "address"
        }
      ],
      "name": "RoleGranted",
      "type": "event"
    },
    {
      "anonymous": false,
      "inputs": [
        {
          "indexed": true,
          "internalType": "bytes32",
          "name": "role",
          "type": "bytes32"
        },
        {
          "indexed": true,
          "internalType": "address",
          "name": "account",
          "type": "address"
        },
        {
          "indexed": true,
          "internalType": "address",
          "name": "sender",
          "type": "address"
        }
      ],
      "name": "RoleRevoked",
      "type": "event"
    },
    {
      "anonymous": false,
      "inputs": [
        {
          "indexed": true,
          "internalType": "address",
          "name": "from",
          "type": "address"
        },
        {
          "indexed": true,
          "internalType": "address",
          "name": "to",
          "type": "address"
        },
        {
          "indexed": false,
          "internalType": "uint256",
          "name": "value",
          "type": "uint256"
        }
      ],
      "name": "Transfer",
      "type": "event"
    },
    {
      "anonymous": false,
      "inputs": [
        {
          "indexed": false,
          "internalType": "address",
          "name": "account",
          "type": "address"
        }
      ],
      "name": "Unpaused",
      "type": "event"
    },
    {
      "inputs": [],
      "name": "DEFAULT_ADMIN_ROLE",
      "outputs": [
        {
          "internalType": "bytes32",
          "name": "",
          "type": "bytes32"
        }
      ],
      "stateMutability": "view",
      "type": "function"
    },
    {
      "inputs": [],
      "name": "MINTER_ROLE",
      "outputs": [
        {
          "internalType": "bytes32",
          "name": "",
          "type": "bytes32"
        }
      ],
      "stateMutability": "view",
      "type": "function"
    },
    {
      "inputs": [],
      "name": "PAUSER_ROLE",
      "outputs": [
        {
          "internalType": "bytes32",
          "name": "",
          "type": "bytes32"
        }
      ],
      "stateMutability": "view",
      "type": "function"
    },
    {
      "inputs": [
        {
          "internalType": "address",
          "name": "owner",
          "type": "address"
        },
        {
          "internalType": "address",
          "name": "spender",
          "type": "address"
        }
      ],
      "name": "allowance",
      "outputs": [
        {
          "internalType": "uint256",
          "name": "",
          "type": "uint256"
        }
      ],
      "stateMutability": "view",
      "type": "function"
    },
    {
      "inputs": [
        {
          "internalType": "address",
          "name": "spender",
          "type": "address"
        },
        {
          "internalType": "uint256",
          "name": "amount",
          "type": "uint256"
        }
      ],
      "name": "approve",
      "outputs": [
        {
          "internalType": "bool",
          "name": "",
          "type": "bool"
        }
      ],
      "stateMutability": "nonpayable",
      "type": "function"
    },
    {
      "inputs": [
        {
          "internalType": "address",
          "name": "account",
          "type": "address"
        }
      ],
      "name": "balanceOf",
      "outputs": [
        {
          "internalType": "uint256",
          "name": "",
          "type": "uint256"
        }
      ],
      "stateMutability": "view",
      "type": "function"
    },
    {
      "inputs": [
        {
          "internalType": "uint256",
          "name": "amount",
          "type": "uint256"
        }
      ],
      "name": "burn",
      "outputs": [],
      "stateMutability": "nonpayable",
      "type": "function"
    },
    {
      "inputs": [
        {
          "internalType": "address",
          "name": "account",
          "type": "address"
        },
        {
          "internalType": "uint256",
          "name": "amount",
          "type": "uint256"
        }
      ],
      "name": "burnFrom",
      "outputs": [],
      "stateMutability": "nonpayable",
      "type": "function"
    },
    {
      "inputs": [],
      "name": "decimals",
      "outputs": [
        {
          "internalType": "uint8",
          "name": "",
          "type": "uint8"
        }
      ],
      "stateMutability": "view",
      "type": "function"
    },
    {
      "inputs": [
        {
          "internalType": "address",
          "name": "spender",
          "type": "address"
        },
        {
          "internalType": "uint256",
          "name": "subtractedValue",
          "type": "uint256"
        }
      ],
      "name": "decreaseAllowance",
      "outputs": [
        {
          "internalType": "bool",
          "name": "",
          "type": "bool"
        }
      ],
      "stateMutability": "nonpayable",
      "type": "function"
    },
    {
      "inputs": [
        {
          "internalType": "bytes32",
          "name": "role",
          "type": "bytes32"
        }
      ],
      "name": "getRoleAdmin",
      "outputs": [
        {
          "internalType": "bytes32",
          "name": "",
          "type": "bytes32"
        }
      ],
      "stateMutability": "view",
      "type": "function"
    },
    {
      "inputs": [
        {
          "internalType": "bytes32",
          "name": "role",
          "type": "bytes32"
        },
        {
          "internalType": "address",
          "name": "account",
          "type": "address"
        }
      ],
      "name": "grantRole",
      "outputs": [],
      "stateMutability": "nonpayable",
      "type": "function"
    },
    {
      "inputs": [
        {
          "internalType": "bytes32",
          "name": "role",
          "type": "bytes32"
        },
        {
          "internalType": "address",
          "name": "account",
          "type": "address"
        }
      ],
      "name": "hasRole",
      "outputs": [
        {
          "internalType": "bool",
          "name": "",
          "type": "bool"
        }
      ],
      "stateMutability": "view",
      "type": "function"
    },
    {
      "inputs": [
        {
          "internalType": "address",
          "name": "spender",
          "type": "address"
        },
        {
          "internalType": "uint256",
          "name": "addedValue",
          "type": "uint256"
        }
      ],
      "name": "increaseAllowance",
      "outputs": [
        {
          "internalType": "bool",
          "name": "",
          "type": "bool"
        }
      ],
      "stateMutability": "nonpayable",
      "type": "function"
    },
    {
      "inputs": [
        {
          "internalType": "address",
          "name": "to",
          "type": "address"
        },
        {
          "internalType": "uint256",
          "name": "amount",
          "type": "uint256"
        }
      ],
      "name": "mint",
      "outputs": [],
      "stateMutability": "nonpayable",
      "type": "function"
    },
    {
      "inputs": [],
      "name": "name",
      "outputs": [
        {
          "internalType": "string",
          "name": "",
          "type": "string"
        }
      ],
      "stateMutability": "view",
      "type": "function"
    },
    {
      "inputs": [],
      "name": "pause",
      "outputs": [],
      "stateMutability": "nonpayable",
      "type": "function"
    },
    {
      "inputs": [],
      "name": "paused",
      "outputs": [
        {
          "internalType": "bool",
          "name": "",
          "type": "bool"
        }
      ],
      "stateMutability": "view",
      "type": "function"
    },
    {
      "inputs": [
        {
          "internalType": "bytes32",
          "name": "role",
          "type": "bytes32"
        },
        {
          "internalType": "address",
          "name": "account",
          "type": "address"
        }
      ],
      "name": "renounceRole",
      "outputs": [],
      "stateMutability": "nonpayable",
      "type": "function"
    },
    {
      "inputs": [
        {
          "internalType": "bytes32",
          "name": "role",
          "type": "bytes32"
        },
        {
          "internalType": "address",
          "name": "account",
          "type": "address"
        }
      ],
      "name": "revokeRole",
      "outputs": [],
      "stateMutability": "nonpayable",
      "type": "function"
    },
    {
      "inputs": [
        {
          "internalType": "bytes4",
          "name": "interfaceId",
          "type": "bytes4"
        }
      ],
      "name": "supportsInterface",
      "outputs": [
        {
          "internalType": "bool",
          "name": "",
          "type": "bool"
        }
      ],
      "stateMutability": "view",
      "type": "function"
    },
    {
      "inputs": [],
      "name": "symbol",
      "outputs": [
        {
          "internalType": "string",
          "name": "",
          "type": "string"
        }
      ],
      "stateMutability": "view",
      "type": "function"
    },
    {
      "inputs": [],
      "name": "totalSupply",
      "outputs": [
        {
          "internalType": "uint256",
          "name": "",
          "type": "uint256"
        }
      ],
      "stateMutability": "view",
      "type": "function"
    },
    {
      "inputs": [
        {
          "internalType": "address",
          "name": "to",
          "type": "address"
        },
        {
          "internalType": "uint256",
          "name": "amount",
          "type": "uint256"
        }
      ],
      "name": "transfer",
      "outputs": [
        {
          "internalType": "bool",
          "name": "",
          "type": "bool"
        }
      ],
      "stateMutability": "nonpayable",
      "type": "function"
    },
    {
      "inputs": [
        {
          "internalType": "address",
          "name": "from",
          "type": "address"
        },
        {
          "internalType": "address",
          "name": "to",
          "type": "address"
        },
        {
          "internalType": "uint256",
          "name": "amount",
          "type": "uint256"
        }
      ],
      "name": "transferFrom",
      "outputs": [
        {
          "internalType": "bool",
          "name": "",
          "type": "bool"
        }
      ],
      "stateMutability": "nonpayable",
      "type": "function"
    },
    {
      "inputs": [],
      "name": "unpause",
      "outputs": [],
      "stateMutability": "nonpayable",
      "type": "function"
    }
  ],
  "bytecode": "0x60806040523480156200001157600080fd5b506040518060400160405280601981526020017f42616e636f724e6574776f726b546f6b656e4578616d706c65000000000000008152506040518060400160405280600381526020017f424e540000000000000000000000000000000000000000000000000000000000815250816003908051906020019062000096929190620002b1565b508060049080519060200190620000af929190620002b1565b5050506000600660006101000a81548160ff021916908315150217905550620000ff7f65d7a28e3265b37a6474929f336521b332c1681b933f6cb9f3376673440d862a336200014c60201b60201c565b620001146000801b336200014c60201b60201c565b620001467f9f2df0fed2c77648de5860a4cc508cd0818c85b8b8a1ab4ceeef8d981c8956a6336200014c60201b60201c565b620003c6565b6200015e82826200023e60201b60201c565b6200023a5760016005600084815260200190815260200160002060000160008373ffffffffffffffffffffffffffffffffffffffff1673ffffffffffffffffffffffffffffffffffffffff16815260200190815260200160002060006101000a81548160ff021916908315150217905550620001df620002a960201b60201c565b73ffffffffffffffffffffffffffffffffffffffff168173ffffffffffffffffffffffffffffffffffffffff16837f2f8788117e7eff1d82e926ec794901d17c78024a50270940304540a733656f0d60405160405180910390a45b5050565b60006005600084815260200190815260200160002060000160008373ffffffffffffffffffffffffffffffffffffffff1673ffffffffffffffffffffffffffffffffffffffff16815260200190815260200160002060009054906101000a900460ff16905092915050565b600033905090565b828054620002bf9062000390565b90600052602060002090601f016020900481019282620002e357600085556200032f565b82601f10620002fe57805160ff19168380011785556200032f565b828001600101855582156200032f579182015b828111156200032e57825182559160200191906001019062000311565b5b5090506200033e919062000342565b5090565b5b808211156200035d57600081600090555060010162000343565b5090565b7f4e487b7100000000000000000000000000000000000000000000000000000000600052602260045260246000fd5b60006002820490506001821680620003a957607f821691505b60208210811415620003c057620003bf62000361565b5b50919050565b6128d380620003d66000396000f3fe608060405234801561001057600080fd5b506004361061018e5760003560e01c80635c975abb116100de578063a217fddf11610097578063d539139311610071578063d539139314610497578063d547741f146104b5578063dd62ed3e146104d1578063e63ab1e9146105015761018e565b8063a217fddf14610419578063a457c2d714610437578063a9059cbb146104675761018e565b80635c975abb1461035757806370a082311461037557806379cc6790146103a55780638456cb59146103c157806391d14854146103cb57806395d89b41146103fb5761018e565b80632f2ff15d1161014b578063395093511161012557806339509351146102e55780633f4ba83a1461031557806340c10f191461031f57806342966c681461033b5761018e565b80632f2ff15d1461028f578063313ce567146102ab57806336568abe146102c95761018e565b806301ffc9a71461019357806306fdde03146101c3578063095ea7b3146101e157806318160ddd1461021157806323b872dd1461022f578063248a9ca31461025f575b600080fd5b6101ad60048036038101906101a89190611a52565b61051f565b6040516101ba9190611a9a565b60405180910390f35b6101cb610599565b6040516101d89190611b4e565b60405180910390f35b6101fb60048036038101906101f69190611c04565b61062b565b6040516102089190611a9a565b60405180910390f35b61021961064e565b6040516102269190611c53565b60405180910390f35b61024960048036038101906102449190611c6e565b610658565b6040516102569190611a9a565b60405180910390f35b61027960048036038101906102749190611cf7565b610687565b6040516102869190611d33565b60405180910390f35b6102a960048036038101906102a49190611d4e565b6106a7565b005b6102b36106c8565b6040516102c09190611daa565b60405180910390f35b6102e360048036038101906102de9190611d4e565b6106d1565b005b6102ff60048036038101906102fa9190611c04565b610754565b60405161030c9190611a9a565b60405180910390f35b61031d61078b565b005b61033960048036038101906103349190611c04565b6107c0565b005b61035560048036038101906103509190611dc5565b6107f9565b005b61035f61080d565b60405161036c9190611a9a565b60405180910390f35b61038f600480360381019061038a9190611df2565b610824565b60405161039c9190611c53565b60405180910390f35b6103bf60048036038101906103ba9190611c04565b61086c565b005b6103c961088c565b005b6103e560048036038101906103e09190611d4e565b6108c1565b6040516103f29190611a9a565b60405180910390f35b61040361092c565b6040516104109190611b4e565b60405180910390f35b6104216109be565b60405161042e9190611d33565b60405180910390f35b610451600480360381019061044c9190611c04565b6109c5565b60405161045e9190611a9a565b60405180910390f35b610481600480360381019061047c9190611c04565b610a3c565b60405161048e9190611a9a565b60405180910390f35b61049f610a5f565b6040516104ac9190611d33565b60405180910390f35b6104cf60048036038101906104ca9190611d4e565b610a83565b005b6104eb60048036038101906104e69190611e1f565b610aa4565b6040516104f89190611c53565b60405180910390f35b610509610b2b565b6040516105169190611d33565b60405180910390f35b60007f7965db0b000000000000000000000000000000000000000000000000000000007bffffffffffffffffffffffffffffffffffffffffffffffffffffffff1916827bffffffffffffffffffffffffffffffffffffffffffffffffffffffff19161480610592575061059182610b4f565b5b9050919050565b6060600380546105a890611e8e565b80601f01602080910402602001604051908101604052809291908181526020018280546105d490611e8e565b80156106215780601f106105f657610100808354040283529160200191610621565b820191906000526020600020905b81548152906001019060200180831161060457829003601f168201915b5050505050905090565b600080610636610bb9565b9050610643818585610bc1565b600191505092915050565b6000600254905090565b600080610663610bb9565b9050610670858285610d8c565b61067b858585610e18565b60019150509392505050565b600060056000838152602001908152602001600020600101549050919050565b6106b082610687565b6106b981611090565b6106c383836110a4565b505050565b60006012905090565b6106d9610bb9565b73ffffffffffffffffffffffffffffffffffffffff168173ffffffffffffffffffffffffffffffffffffffff1614610746576040517f08c379a000000000000000000000000000000000000000000000000000000000815260040161073d90611f32565b60405180910390fd5b6107508282611185565b5050565b60008061075f610bb9565b90506107808185856107718589610aa4565b61077b9190611f81565b610bc1565b600191505092915050565b7f65d7a28e3265b37a6474929f336521b332c1681b933f6cb9f3376673440d862a6107b581611090565b6107bd611267565b50565b7f9f2df0fed2c77648de5860a4cc508cd0818c85b8b8a1ab4ceeef8d981c8956a66107ea81611090565b6107f483836112ca565b505050565b61080a610804610bb9565b82611421565b50565b6000600660009054906101000a900460ff16905090565b60008060008373ffffffffffffffffffffffffffffffffffffffff1673ffffffffffffffffffffffffffffffffffffffff168152602001908152602001600020549050919050565b61087e82610878610bb9565b83610d8c565b6108888282611421565b5050565b7f65d7a28e3265b37a6474929f336521b332c1681b933f6cb9f3376673440d862a6108b681611090565b6108be6115ef565b50565b60006005600084815260200190815260200160002060000160008373ffffffffffffffffffffffffffffffffffffffff1673ffffffffffffffffffffffffffffffffffffffff16815260200190815260200160002060009054906101000a900460ff16905092915050565b60606004805461093b90611e8e565b80601f016020809104026020016040519081016040528092919081815260200182805461096790611e8e565b80156109b45780601f10610989576101008083540402835291602001916109b4565b820191906000526020600020905b81548152906001019060200180831161099757829003601f168201915b5050505050905090565b6000801b81565b6000806109d0610bb9565b905060006109de8286610aa4565b905083811015610a23576040517f08c379a0000000000000000000000000000000000000000000000000000000008152600401610a1a90612049565b60405180910390fd5b610a308286868403610bc1565b60019250505092915050565b600080610a47610bb9565b9050610a54818585610e18565b600191505092915050565b7f9f2df0fed2c77648de5860a4cc508cd0818c85b8b8a1ab4ceeef8d981c8956a681565b610a8c82610687565b610a9581611090565b610a9f8383611185565b505050565b6000600160008473ffffffffffffffffffffffffffffffffffffffff1673ffffffffffffffffffffffffffffffffffffffff16815260200190815260200160002060008373ffffffffffffffffffffffffffffffffffffffff1673ffffffffffffffffffffffffffffffffffffffff16815260200190815260200160002054905092915050565b7f65d7a28e3265b37a6474929f336521b332c1681b933f6cb9f3376673440d862a81565b60007f01ffc9a7000000000000000000000000000000000000000000000000000000007bffffffffffffffffffffffffffffffffffffffffffffffffffffffff1916827bffffffffffffffffffffffffffffffffffffffffffffffffffffffff1916149050919050565b600033905090565b600073ffffffffffffffffffffffffffffffffffffffff168373ffffffffffffffffffffffffffffffffffffffff161415610c31576040517f08c379a0000000000000000000000000000000000000000000000000000000008152600401610c28906120db565b60405180910390fd5b600073ffffffffffffffffffffffffffffffffffffffff168273ffffffffffffffffffffffffffffffffffffffff161415610ca1576040517f08c379a0000000000000000000000000000000000000000000000000000000008152600401610c989061216d565b60405180910390fd5b80600160008573ffffffffffffffffffffffffffffffffffffffff1673ffffffffffffffffffffffffffffffffffffffff16815260200190815260200160002060008473ffffffffffffffffffffffffffffffffffffffff1673ffffffffffffffffffffffffffffffffffffffff168152602001908152602001600020819055508173ffffffffffffffffffffffffffffffffffffffff168373ffffffffffffffffffffffffffffffffffffffff167f8c5be1e5ebec7d5bd14f71427d1e84f3dd0314c0f7b2291e5b200ac8c7c3b92583604051610d7f9190611c53565b60405180910390a3505050565b6000610d988484610aa4565b90507fffffffffffffffffffffffffffffffffffffffffffffffffffffffffffffffff8114610e125781811015610e04576040517f08c379a0000000000000000000000000000000000000000000000000000000008152600401610dfb906121d9565b60405180910390fd5b610e118484848403610bc1565b5b50505050565b600073ffffffffffffffffffffffffffffffffffffffff168373ffffffffffffffffffffffffffffffffffffffff161415610e88576040517f08c379a0000000000000000000000000000000000000000000000000000000008152600401610e7f9061226b565b60405180910390fd5b600073ffffffffffffffffffffffffffffffffffffffff168273ffffffffffffffffffffffffffffffffffffffff161415610ef8576040517f08c379a0000000000000000000000000000000000000000000000000000000008152600401610eef906122fd565b60405180910390fd5b610f03838383611652565b60008060008573ffffffffffffffffffffffffffffffffffffffff1673ffffffffffffffffffffffffffffffffffffffff16815260200190815260200160002054905081811015610f89576040517f08c379a0000000000000000000000000000000000000000000000000000000008152600401610f809061238f565b60405180910390fd5b8181036000808673ffffffffffffffffffffffffffffffffffffffff1673ffffffffffffffffffffffffffffffffffffffff16815260200190815260200160002081905550816000808573ffffffffffffffffffffffffffffffffffffffff1673ffffffffffffffffffffffffffffffffffffffff168152602001908152602001600020600082825401925050819055508273ffffffffffffffffffffffffffffffffffffffff168473ffffffffffffffffffffffffffffffffffffffff167fddf252ad1be2c89b69c2b068fc378daa952ba7f163c4a11628f55a4df523b3ef846040516110779190611c53565b60405180910390a361108a84848461166a565b50505050565b6110a18161109c610bb9565b61166f565b50565b6110ae82826108c1565b6111815760016005600084815260200190815260200160002060000160008373ffffffffffffffffffffffffffffffffffffffff1673ffffffffffffffffffffffffffffffffffffffff16815260200190815260200160002060006101000a81548160ff021916908315150217905550611126610bb9565b73ffffffffffffffffffffffffffffffffffffffff168173ffffffffffffffffffffffffffffffffffffffff16837f2f8788117e7eff1d82e926ec794901d17c78024a50270940304540a733656f0d60405160405180910390a45b5050565b61118f82826108c1565b156112635760006005600084815260200190815260200160002060000160008373ffffffffffffffffffffffffffffffffffffffff1673ffffffffffffffffffffffffffffffffffffffff16815260200190815260200160002060006101000a81548160ff021916908315150217905550611208610bb9565b73ffffffffffffffffffffffffffffffffffffffff168173ffffffffffffffffffffffffffffffffffffffff16837ff6391f5c32d9c69d2a47ea670b442974b53935d1edc7fd64eb21e047a839171b60405160405180910390a45b5050565b61126f6116f4565b6000600660006101000a81548160ff0219169083151502179055507f5db9ee0a495bf2e6ff9c91a7834c1ba4fdd244a5e8aa4e537bd38aeae4b073aa6112b3610bb9565b6040516112c091906123be565b60405180910390a1565b600073ffffffffffffffffffffffffffffffffffffffff168273ffffffffffffffffffffffffffffffffffffffff16141561133a576040517f08c379a000000000000000000000000000000000000000000000000000000000815260040161133190612425565b60405180910390fd5b61134660008383611652565b80600260008282546113589190611f81565b92505081905550806000808473ffffffffffffffffffffffffffffffffffffffff1673ffffffffffffffffffffffffffffffffffffffff168152602001908152602001600020600082825401925050819055508173ffffffffffffffffffffffffffffffffffffffff16600073ffffffffffffffffffffffffffffffffffffffff167fddf252ad1be2c89b69c2b068fc378daa952ba7f163c4a11628f55a4df523b3ef836040516114099190611c53565b60405180910390a361141d6000838361166a565b5050565b600073ffffffffffffffffffffffffffffffffffffffff168273ffffffffffffffffffffffffffffffffffffffff161415611491576040517f08c379a0000000000000000000000000000000000000000000000000000000008152600401611488906124b7565b60405180910390fd5b61149d82600083611652565b60008060008473ffffffffffffffffffffffffffffffffffffffff1673ffffffffffffffffffffffffffffffffffffffff16815260200190815260200160002054905081811015611523576040517f08c379a000000000000000000000000000000000000000000000000000000000815260040161151a90612549565b60405180910390fd5b8181036000808573ffffffffffffffffffffffffffffffffffffffff1673ffffffffffffffffffffffffffffffffffffffff1681526020019081526020016000208190555081600260008282540392505081905550600073ffffffffffffffffffffffffffffffffffffffff168373ffffffffffffffffffffffffffffffffffffffff167fddf252ad1be2c89b69c2b068fc378daa952ba7f163c4a11628f55a4df523b3ef846040516115d69190611c53565b60405180910390a36115ea8360008461166a565b505050565b6115f761173d565b6001600660006101000a81548160ff0219169083151502179055507f62e78cea01bee320cd4e420270b5ea74000d11b0c9f74754ebdbfc544b05a25861163b610bb9565b60405161164891906123be565b60405180910390a1565b61165a61173d565b611665838383611787565b505050565b505050565b61167982826108c1565b6116f0576116868161178c565b6116948360001c60206117b9565b6040516020016116a592919061263d565b6040516020818303038152906040526040517f08c379a00000000000000000000000000000000000000000000000000000000081526004016116e79190611b4e565b60405180910390fd5b5050565b6116fc61080d565b61173b576040517f08c379a0000000000000000000000000000000000000000000000000000000008152600401611732906126c3565b60405180910390fd5b565b61174561080d565b15611785576040517f08c379a000000000000000000000000000000000000000000000000000000000815260040161177c9061272f565b60405180910390fd5b565b505050565b60606117b28273ffffffffffffffffffffffffffffffffffffffff16601460ff166117b9565b9050919050565b6060600060028360026117cc919061274f565b6117d69190611f81565b67ffffffffffffffff8111156117ef576117ee6127a9565b5b6040519080825280601f01601f1916602001820160405280156118215781602001600182028036833780820191505090505b5090507f300000000000000000000000000000000000000000000000000000000000000081600081518110611859576118586127d8565b5b60200101907effffffffffffffffffffffffffffffffffffffffffffffffffffffffffffff1916908160001a9053507f7800000000000000000000000000000000000000000000000000000000000000816001815181106118bd576118bc6127d8565b5b60200101907effffffffffffffffffffffffffffffffffffffffffffffffffffffffffffff1916908160001a905350600060018460026118fd919061274f565b6119079190611f81565b90505b60018111156119a7577f3031323334353637383961626364656600000000000000000000000000000000600f861660108110611949576119486127d8565b5b1a60f81b8282815181106119605761195f6127d8565b5b60200101907effffffffffffffffffffffffffffffffffffffffffffffffffffffffffffff1916908160001a905350600485901c9450806119a090612807565b905061190a565b50600084146119eb576040517f08c379a00000000000000000000000000000000000000000000000000000000081526004016119e29061287d565b60405180910390fd5b8091505092915050565b600080fd5b60007fffffffff0000000000000000000000000000000000000000000000000000000082169050919050565b611a2f816119fa565b8114611a3a57600080fd5b50565b600081359050611a4c81611a26565b92915050565b600060208284031215611a6857611a676119f5565b5b6000611a7684828501611a3d565b91505092915050565b60008115159050919050565b611a9481611a7f565b82525050565b6000602082019050611aaf6000830184611a8b565b92915050565b600081519050919050565b600082825260208201905092915050565b60005b83811015611aef578082015181840152602081019050611ad4565b83811115611afe576000848401525b50505050565b6000601f19601f8301169050919050565b6000611b2082611ab5565b611b2a8185611ac0565b9350611b3a818560208601611ad1565b611b4381611b04565b840191505092915050565b60006020820190508181036000830152611b688184611b15565b905092915050565b600073ffffffffffffffffffffffffffffffffffffffff82169050919050565b6000611b9b82611b70565b9050919050565b611bab81611b90565b8114611bb657600080fd5b50565b600081359050611bc881611ba2565b92915050565b6000819050919050565b611be181611bce565b8114611bec57600080fd5b50565b600081359050611bfe81611bd8565b92915050565b60008060408385031215611c1b57611c1a6119f5565b5b6000611c2985828601611bb9565b9250506020611c3a85828601611bef565b9150509250929050565b611c4d81611bce565b82525050565b6000602082019050611c686000830184611c44565b92915050565b600080600060608486031215611c8757611c866119f5565b5b6000611c9586828701611bb9565b9350506020611ca686828701611bb9565b9250506040611cb786828701611bef565b9150509250925092565b6000819050919050565b611cd481611cc1565b8114611cdf57600080fd5b50565b600081359050611cf181611ccb565b92915050565b600060208284031215611d0d57611d0c6119f5565b5b6000611d1b84828501611ce2565b91505092915050565b611d2d81611cc1565b82525050565b6000602082019050611d486000830184611d24565b92915050565b60008060408385031215611d6557611d646119f5565b5b6000611d7385828601611ce2565b9250506020611d8485828601611bb9565b9150509250929050565b600060ff82169050919050565b611da481611d8e565b82525050565b6000602082019050611dbf6000830184611d9b565b92915050565b600060208284031215611ddb57611dda6119f5565b5b6000611de984828501611bef565b91505092915050565b600060208284031215611e0857611e076119f5565b5b6000611e1684828501611bb9565b91505092915050565b60008060408385031215611e3657611e356119f5565b5b6000611e4485828601611bb9565b9250506020611e5585828601611bb9565b9150509250929050565b7f4e487b7100000000000000000000000000000000000000000000000000000000600052602260045260246000fd5b60006002820490506001821680611ea657607f821691505b60208210811415611eba57611eb9611e5f565b5b50919050565b7f416363657373436f6e74726f6c3a2063616e206f6e6c792072656e6f756e636560008201527f20726f6c657320666f722073656c660000000000000000000000000000000000602082015250565b6000611f1c602f83611ac0565b9150611f2782611ec0565b604082019050919050565b60006020820190508181036000830152611f4b81611f0f565b9050919050565b7f4e487b7100000000000000000000000000000000000000000000000000000000600052601160045260246000fd5b6000611f8c82611bce565b9150611f9783611bce565b9250827fffffffffffffffffffffffffffffffffffffffffffffffffffffffffffffffff03821115611fcc57611fcb611f52565b5b828201905092915050565b7f45524332303a2064656372656173656420616c6c6f77616e63652062656c6f7760008201527f207a65726f000000000000000000000000000000000000000000000000000000602082015250565b6000612033602583611ac0565b915061203e82611fd7565b604082019050919050565b6000602082019050818103600083015261206281612026565b9050919050565b7f45524332303a20617070726f76652066726f6d20746865207a65726f2061646460008201527f7265737300000000000000000000000000000000000000000000000000000000602082015250565b60006120c5602483611ac0565b91506120d082612069565b604082019050919050565b600060208201905081810360008301526120f4816120b8565b9050919050565b7f45524332303a20617070726f766520746f20746865207a65726f20616464726560008201527f7373000000000000000000000000000000000000000000000000000000000000602082015250565b6000612157602283611ac0565b9150612162826120fb565b604082019050919050565b600060208201905081810360008301526121868161214a565b9050919050565b7f45524332303a20696e73756666696369656e7420616c6c6f77616e6365000000600082015250565b60006121c3601d83611ac0565b91506121ce8261218d565b602082019050919050565b600060208201905081810360008301526121f2816121b6565b9050919050565b7f45524332303a207472616e736665722066726f6d20746865207a65726f20616460008201527f6472657373000000000000000000000000000000000000000000000000000000602082015250565b6000612255602583611ac0565b9150612260826121f9565b604082019050919050565b6000602082019050818103600083015261228481612248565b9050919050565b7f45524332303a207472616e7366657220746f20746865207a65726f206164647260008201527f6573730000000000000000000000000000000000000000000000000000000000602082015250565b60006122e7602383611ac0565b91506122f28261228b565b604082019050919050565b60006020820190508181036000830152612316816122da565b9050919050565b7f45524332303a207472616e7366657220616d6f756e742065786365656473206260008201527f616c616e63650000000000000000000000000000000000000000000000000000602082015250565b6000612379602683611ac0565b91506123848261231d565b604082019050919050565b600060208201905081810360008301526123a88161236c565b9050919050565b6123b881611b90565b82525050565b60006020820190506123d360008301846123af565b92915050565b7f45524332303a206d696e7420746f20746865207a65726f206164647265737300600082015250565b600061240f601f83611ac0565b915061241a826123d9565b602082019050919050565b6000602082019050818103600083015261243e81612402565b9050919050565b7f45524332303a206275726e2066726f6d20746865207a65726f2061646472657360008201527f7300000000000000000000000000000000000000000000000000000000000000602082015250565b60006124a1602183611ac0565b91506124ac82612445565b604082019050919050565b600060208201905081810360008301526124d081612494565b9050919050565b7f45524332303a206275726e20616d6f756e7420657863656564732062616c616e60008201527f6365000000000000000000000000000000000000000000000000000000000000602082015250565b6000612533602283611ac0565b915061253e826124d7565b604082019050919050565b6000602082019050818103600083015261256281612526565b9050919050565b600081905092915050565b7f416363657373436f6e74726f6c3a206163636f756e7420000000000000000000600082015250565b60006125aa601783612569565b91506125b582612574565b601782019050919050565b60006125cb82611ab5565b6125d58185612569565b93506125e5818560208601611ad1565b80840191505092915050565b7f206973206d697373696e6720726f6c6520000000000000000000000000000000600082015250565b6000612627601183612569565b9150612632826125f1565b601182019050919050565b60006126488261259d565b915061265482856125c0565b915061265f8261261a565b915061266b82846125c0565b91508190509392505050565b7f5061757361626c653a206e6f7420706175736564000000000000000000000000600082015250565b60006126ad601483611ac0565b91506126b882612677565b602082019050919050565b600060208201905081810360008301526126dc816126a0565b9050919050565b7f5061757361626c653a2070617573656400000000000000000000000000000000600082015250565b6000612719601083611ac0565b9150612724826126e3565b602082019050919050565b600060208201905081810360008301526127488161270c565b9050919050565b600061275a82611bce565b915061276583611bce565b9250817fffffffffffffffffffffffffffffffffffffffffffffffffffffffffffffffff048311821515161561279e5761279d611f52565b5b828202905092915050565b7f4e487b7100000000000000000000000000000000000000000000000000000000600052604160045260246000fd5b7f4e487b7100000000000000000000000000000000000000000000000000000000600052603260045260246000fd5b600061281282611bce565b9150600082141561282657612825611f52565b5b600182039050919050565b7f537472696e67733a20686578206c656e67746820696e73756666696369656e74600082015250565b6000612867602083611ac0565b915061287282612831565b602082019050919050565b600060208201905081810360008301526128968161285a565b905091905056fea26469706673582212201fc4e2223aca9e2991609472fe2666fc520d627149c10aa886a3b223d5d8f59064736f6c63430008090033",
  "linkReferences": {},
  "deployedLinkReferences": {}
}